{
  "_format": "hh-sol-artifact-1",
  "contractName": "Claimmechanism",
  "sourceName": "contracts/Claim.sol",
  "abi": [
    {
      "inputs": [
        {
          "internalType": "address",
          "name": "_token",
          "type": "address"
        },
        {
          "internalType": "uint256",
          "name": "_claim",
          "type": "uint256"
        }
      ],
      "stateMutability": "nonpayable",
      "type": "constructor"
    },
    {
      "anonymous": false,
      "inputs": [
        {
          "indexed": true,
          "internalType": "address",
          "name": "users",
          "type": "address"
        },
        {
          "indexed": false,
          "internalType": "uint256",
          "name": "claimableToken",
          "type": "uint256"
        }
      ],
      "name": "Claim",
      "type": "event"
    },
    {
      "inputs": [],
      "name": "claim",
      "outputs": [],
      "stateMutability": "nonpayable",
      "type": "function"
    },
    {
      "inputs": [],
      "name": "claimableToken",
      "outputs": [
        {
          "internalType": "uint256",
          "name": "",
          "type": "uint256"
        }
      ],
      "stateMutability": "view",
      "type": "function"
    },
    {
      "inputs": [],
      "name": "token",
      "outputs": [
        {
          "internalType": "contract IERC20",
          "name": "",
          "type": "address"
        }
      ],
      "stateMutability": "view",
      "type": "function"
    }
  ],
  "bytecode": "0x608060405234801561001057600080fd5b5060405161079b38038061079b833981810160405281019061003291906100aa565b816000806101000a81548173ffffffffffffffffffffffffffffffffffffffff021916908373ffffffffffffffffffffffffffffffffffffffff160217905550806001819055505050610150565b60008151905061008f81610122565b92915050565b6000815190506100a481610139565b92915050565b600080604083850312156100bd57600080fd5b60006100cb85828601610080565b92505060206100dc85828601610095565b9150509250929050565b60006100f1826100f8565b9050919050565b600073ffffffffffffffffffffffffffffffffffffffff82169050919050565b6000819050919050565b61012b816100e6565b811461013657600080fd5b50565b61014281610118565b811461014d57600080fd5b50565b61063c8061015f6000396000f3fe608060405234801561001057600080fd5b50600436106100415760003560e01c80634e71d92d14610046578063f6d6d5aa14610050578063fc0c546a1461006e575b600080fd5b61004e61008c565b005b610058610303565b604051610065919061048e565b60405180910390f35b610076610309565b6040516100839190610453565b60405180910390f35b6000600260003373ffffffffffffffffffffffffffffffffffffffff1673ffffffffffffffffffffffffffffffffffffffff168152602001908152602001600020905060015460008054906101000a900473ffffffffffffffffffffffffffffffffffffffff1673ffffffffffffffffffffffffffffffffffffffff166370a08231306040518263ffffffff1660e01b815260040161012b919061040f565b60206040518083038186803b15801561014357600080fd5b505afa158015610157573d6000803e3d6000fd5b505050506040513d601f19601f8201168201806040525081019061017b9190610396565b101561018657600080fd5b8060000154816001015410156101d1576040517f08c379a00000000000000000000000000000000000000000000000000000000081526004016101c89061046e565b60405180910390fd5b4281600101819055506101f0620151804261032d90919063ffffffff16565b816000018190555060008054906101000a900473ffffffffffffffffffffffffffffffffffffffff1673ffffffffffffffffffffffffffffffffffffffff1663a9059cbb336001546040518363ffffffff1660e01b815260040161025592919061042a565b602060405180830381600087803b15801561026f57600080fd5b505af1158015610283573d6000803e3d6000fd5b505050506040513d601f19601f820116820180604052508101906102a7919061036d565b6102b057600080fd5b3373ffffffffffffffffffffffffffffffffffffffff167f47cee97cb7acd717b3c0aa1435d004cd5b3c8c57d70dbceb4e4458bbd60e39d46001546040516102f8919061048e565b60405180910390a250565b60015481565b60008054906101000a900473ffffffffffffffffffffffffffffffffffffffff1681565b6000818361033b91906104ba565b905092915050565b600081519050610352816105d8565b92915050565b600081519050610367816105ef565b92915050565b60006020828403121561037f57600080fd5b600061038d84828501610343565b91505092915050565b6000602082840312156103a857600080fd5b60006103b684828501610358565b91505092915050565b6103c881610514565b82525050565b6103d78161055c565b82525050565b60006103ea6011836104a9565b91506103f5826105af565b602082019050919050565b61040981610552565b82525050565b600060208201905061042460008301846103bf565b92915050565b600060408201905061043f60008301856103bf565b61044c6020830184610400565b9392505050565b600060208201905061046860008301846103ce565b92915050565b60006020820190508181036000830152610487816103dd565b9050919050565b60006020820190506104a36000830184610400565b92915050565b600082825260208201905092915050565b60006104c582610552565b91506104d083610552565b9250817fffffffffffffffffffffffffffffffffffffffffffffffffffffffffffffffff048311821515161561050957610508610580565b5b828202905092915050565b600061051f82610532565b9050919050565b60008115159050919050565b600073ffffffffffffffffffffffffffffffffffffffff82169050919050565b6000819050919050565b60006105678261056e565b9050919050565b600061057982610532565b9050919050565b7f4e487b7100000000000000000000000000000000000000000000000000000000600052601160045260246000fd5b7f7761697420666f7220323420686f757273000000000000000000000000000000600082015250565b6105e181610526565b81146105ec57600080fd5b50565b6105f881610552565b811461060357600080fd5b5056fea2646970667358221220952271bffcffb3f5c0776cb9bc67409459f9fd8a7bab9adbaf87eeee6662df4364736f6c63430008040033",
  "linkReferences": {},
  "deployedLinkReferences": {}
}