{
  "_format": "hh-sol-artifact-1",
  "contractName": "MintNFT",
  "sourceName": "contracts/NFT.sol",
  "abi": [
    {
      "inputs": [
        {
          "internalType": "address",
          "name": "_token",
          "type": "address"
        },
        {
          "internalType": "uint256",
          "name": "_tokenmintprice",
          "type": "uint256"
        }
      ],
      "stateMutability": "nonpayable",
      "type": "constructor"
    },
    {
      "anonymous": false,
      "inputs": [
        {
          "indexed": true,
          "internalType": "address",
          "name": "owner",
          "type": "address"
        },
        {
          "indexed": true,
          "internalType": "address",
          "name": "approved",
          "type": "address"
        },
        {
          "indexed": true,
          "internalType": "uint256",
          "name": "tokenId",
          "type": "uint256"
        }
      ],
      "name": "Approval",
      "type": "event"
    },
    {
      "anonymous": false,
      "inputs": [
        {
          "indexed": true,
          "internalType": "address",
          "name": "owner",
          "type": "address"
        },
        {
          "indexed": true,
          "internalType": "address",
          "name": "operator",
          "type": "address"
        },
        {
          "indexed": false,
          "internalType": "bool",
          "name": "approved",
          "type": "bool"
        }
      ],
      "name": "ApprovalForAll",
      "type": "event"
    },
    {
      "anonymous": false,
      "inputs": [
        {
          "indexed": true,
          "internalType": "address",
          "name": "user",
          "type": "address"
        },
        {
          "indexed": true,
          "internalType": "address",
          "name": "Contractaddress",
          "type": "address"
        },
        {
          "indexed": false,
          "internalType": "uint256",
          "name": "amount",
          "type": "uint256"
        }
      ],
      "name": "TokenTransfer",
      "type": "event"
    },
    {
      "anonymous": false,
      "inputs": [
        {
          "indexed": true,
          "internalType": "address",
          "name": "from",
          "type": "address"
        },
        {
          "indexed": true,
          "internalType": "address",
          "name": "to",
          "type": "address"
        },
        {
          "indexed": true,
          "internalType": "uint256",
          "name": "tokenId",
          "type": "uint256"
        }
      ],
      "name": "Transfer",
      "type": "event"
    },
    {
      "inputs": [
        {
          "internalType": "string",
          "name": "_uri",
          "type": "string"
        },
        {
          "internalType": "address",
          "name": "recipient",
          "type": "address"
        }
      ],
      "name": "Bnbmint",
      "outputs": [],
      "stateMutability": "payable",
      "type": "function"
    },
    {
      "inputs": [
        {
          "internalType": "string",
          "name": "_uri",
          "type": "string"
        },
        {
          "internalType": "address",
          "name": "recipient",
          "type": "address"
        }
      ],
      "name": "Tokenmint",
      "outputs": [],
      "stateMutability": "nonpayable",
      "type": "function"
    },
    {
      "inputs": [
        {
          "internalType": "address",
          "name": "to",
          "type": "address"
        },
        {
          "internalType": "uint256",
          "name": "tokenId",
          "type": "uint256"
        }
      ],
      "name": "approve",
      "outputs": [],
      "stateMutability": "nonpayable",
      "type": "function"
    },
    {
      "inputs": [
        {
          "internalType": "address",
          "name": "owner",
          "type": "address"
        }
      ],
      "name": "balanceOf",
      "outputs": [
        {
          "internalType": "uint256",
          "name": "",
          "type": "uint256"
        }
      ],
      "stateMutability": "view",
      "type": "function"
    },
    {
      "inputs": [],
      "name": "charge",
      "outputs": [],
      "stateMutability": "payable",
      "type": "function"
    },
    {
      "inputs": [
        {
          "internalType": "uint256",
          "name": "tokenId",
          "type": "uint256"
        }
      ],
      "name": "getApproved",
      "outputs": [
        {
          "internalType": "address",
          "name": "",
          "type": "address"
        }
      ],
      "stateMutability": "view",
      "type": "function"
    },
    {
      "inputs": [
        {
          "internalType": "address",
          "name": "owner",
          "type": "address"
        },
        {
          "internalType": "address",
          "name": "operator",
          "type": "address"
        }
      ],
      "name": "isApprovedForAll",
      "outputs": [
        {
          "internalType": "bool",
          "name": "",
          "type": "bool"
        }
      ],
      "stateMutability": "view",
      "type": "function"
    },
    {
      "inputs": [],
      "name": "mintPrice",
      "outputs": [
        {
          "internalType": "uint256",
          "name": "",
          "type": "uint256"
        }
      ],
      "stateMutability": "view",
      "type": "function"
    },
    {
      "inputs": [],
      "name": "name",
      "outputs": [
        {
          "internalType": "string",
          "name": "",
          "type": "string"
        }
      ],
      "stateMutability": "view",
      "type": "function"
    },
    {
      "inputs": [],
      "name": "owner",
      "outputs": [
        {
          "internalType": "address payable",
          "name": "",
          "type": "address"
        }
      ],
      "stateMutability": "view",
      "type": "function"
    },
    {
      "inputs": [
        {
          "internalType": "uint256",
          "name": "tokenId",
          "type": "uint256"
        }
      ],
      "name": "ownerOf",
      "outputs": [
        {
          "internalType": "address",
          "name": "",
          "type": "address"
        }
      ],
      "stateMutability": "view",
      "type": "function"
    },
    {
      "inputs": [
        {
          "internalType": "address",
          "name": "from",
          "type": "address"
        },
        {
          "internalType": "address",
          "name": "to",
          "type": "address"
        },
        {
          "internalType": "uint256",
          "name": "tokenId",
          "type": "uint256"
        }
      ],
      "name": "safeTransferFrom",
      "outputs": [],
      "stateMutability": "nonpayable",
      "type": "function"
    },
    {
      "inputs": [
        {
          "internalType": "address",
          "name": "from",
          "type": "address"
        },
        {
          "internalType": "address",
          "name": "to",
          "type": "address"
        },
        {
          "internalType": "uint256",
          "name": "tokenId",
          "type": "uint256"
        },
        {
          "internalType": "bytes",
          "name": "data",
          "type": "bytes"
        }
      ],
      "name": "safeTransferFrom",
      "outputs": [],
      "stateMutability": "nonpayable",
      "type": "function"
    },
    {
      "inputs": [
        {
          "internalType": "address",
          "name": "operator",
          "type": "address"
        },
        {
          "internalType": "bool",
          "name": "approved",
          "type": "bool"
        }
      ],
      "name": "setApprovalForAll",
      "outputs": [],
      "stateMutability": "nonpayable",
      "type": "function"
    },
    {
      "inputs": [
        {
          "internalType": "bytes4",
          "name": "interfaceId",
          "type": "bytes4"
        }
      ],
      "name": "supportsInterface",
      "outputs": [
        {
          "internalType": "bool",
          "name": "",
          "type": "bool"
        }
      ],
      "stateMutability": "view",
      "type": "function"
    },
    {
      "inputs": [],
      "name": "symbol",
      "outputs": [
        {
          "internalType": "string",
          "name": "",
          "type": "string"
        }
      ],
      "stateMutability": "view",
      "type": "function"
    },
    {
      "inputs": [],
      "name": "token",
      "outputs": [
        {
          "internalType": "contract IERC20",
          "name": "",
          "type": "address"
        }
      ],
      "stateMutability": "view",
      "type": "function"
    },
    {
      "inputs": [
        {
          "internalType": "uint256",
          "name": "index",
          "type": "uint256"
        }
      ],
      "name": "tokenByIndex",
      "outputs": [
        {
          "internalType": "uint256",
          "name": "",
          "type": "uint256"
        }
      ],
      "stateMutability": "view",
      "type": "function"
    },
    {
      "inputs": [],
      "name": "tokenCount",
      "outputs": [
        {
          "internalType": "uint256",
          "name": "",
          "type": "uint256"
        }
      ],
      "stateMutability": "view",
      "type": "function"
    },
    {
      "inputs": [
        {
          "internalType": "address",
          "name": "owner",
          "type": "address"
        },
        {
          "internalType": "uint256",
          "name": "index",
          "type": "uint256"
        }
      ],
      "name": "tokenOfOwnerByIndex",
      "outputs": [
        {
          "internalType": "uint256",
          "name": "",
          "type": "uint256"
        }
      ],
      "stateMutability": "view",
      "type": "function"
    },
    {
      "inputs": [
        {
          "internalType": "uint256",
          "name": "tokenId",
          "type": "uint256"
        }
      ],
      "name": "tokenURI",
      "outputs": [
        {
          "internalType": "string",
          "name": "",
          "type": "string"
        }
      ],
      "stateMutability": "view",
      "type": "function"
    },
    {
      "inputs": [],
      "name": "tokenmintprice",
      "outputs": [
        {
          "internalType": "uint256",
          "name": "",
          "type": "uint256"
        }
      ],
      "stateMutability": "view",
      "type": "function"
    },
    {
      "inputs": [],
      "name": "totalSupply",
      "outputs": [
        {
          "internalType": "uint256",
          "name": "",
          "type": "uint256"
        }
      ],
      "stateMutability": "view",
      "type": "function"
    },
    {
      "inputs": [
        {
          "internalType": "address",
          "name": "from",
          "type": "address"
        },
        {
          "internalType": "address",
          "name": "to",
          "type": "address"
        },
        {
          "internalType": "uint256",
          "name": "tokenId",
          "type": "uint256"
        }
      ],
      "name": "transferFrom",
      "outputs": [],
      "stateMutability": "nonpayable",
      "type": "function"
    },
    {
      "inputs": [],
      "name": "withdrawAll",
      "outputs": [],
      "stateMutability": "nonpayable",
      "type": "function"
    }
  ],
  "bytecode": "0x60806040523480156200001157600080fd5b5060405162003d3038038062003d30833981810160405281019062000037919062000246565b6040518060400160405280600d81526020017f666c696768746e66742e6e6574000000000000000000000000000000000000008152506040518060400160405280600981526020017f466c696768744e465400000000000000000000000000000000000000000000008152508160009080519060200190620000bb92919062000168565b508060019080519060200190620000d492919062000168565b50505081600c60006101000a81548173ffffffffffffffffffffffffffffffffffffffff021916908373ffffffffffffffffffffffffffffffffffffffff16021790555080600d8190555033600e60006101000a81548173ffffffffffffffffffffffffffffffffffffffff021916908373ffffffffffffffffffffffffffffffffffffffff16021790555050506200035e565b8280546200017690620002c5565b90600052602060002090601f0160209004810192826200019a5760008555620001e6565b82601f10620001b557805160ff1916838001178555620001e6565b82800160010185558215620001e6579182015b82811115620001e5578251825591602001919060010190620001c8565b5b509050620001f59190620001f9565b5090565b5b8082111562000214576000816000905550600101620001fa565b5090565b60008151905062000229816200032a565b92915050565b600081519050620002408162000344565b92915050565b600080604083850312156200025a57600080fd5b60006200026a8582860162000218565b92505060206200027d858286016200022f565b9150509250929050565b600062000294826200029b565b9050919050565b600073ffffffffffffffffffffffffffffffffffffffff82169050919050565b6000819050919050565b60006002820490506001821680620002de57607f821691505b60208210811415620002f557620002f4620002fb565b5b50919050565b7f4e487b7100000000000000000000000000000000000000000000000000000000600052602260045260246000fd5b620003358162000287565b81146200034157600080fd5b50565b6200034f81620002bb565b81146200035b57600080fd5b50565b6139c2806200036e6000396000f3fe6080604052600436106101665760003560e01c80636817c76c116100d15780639f181b5e1161008a578063c87b56dd11610064578063c87b56dd1461051d578063e985e9c51461055a578063f28ca7b714610597578063fc0c546a146105b357610166565b80639f181b5e146104a0578063a22cb465146104cb578063b88d4fde146104f457610166565b80636817c76c146103a05780636a4c8e71146103cb57806370a08231146103f6578063853828b6146104335780638da5cb5b1461044a57806395d89b411461047557610166565b80632f745c59116101235780632f745c591461028d57806330c2bd7d146102ca57806342842e0e146102f35780634f6ccce71461031c57806355161913146103595780636352211e1461036357610166565b806301ffc9a71461016b57806306fdde03146101a8578063081812fc146101d3578063095ea7b31461021057806318160ddd1461023957806323b872dd14610264575b600080fd5b34801561017757600080fd5b50610192600480360381019061018d9190612a52565b6105de565b60405161019f9190612f28565b60405180910390f35b3480156101b457600080fd5b506101bd6105f0565b6040516101ca9190612f5e565b60405180910390f35b3480156101df57600080fd5b506101fa60048036038101906101f59190612af8565b610682565b6040516102079190612e46565b60405180910390f35b34801561021c57600080fd5b50610237600480360381019061023291906129ed565b6106c8565b005b34801561024557600080fd5b5061024e6107e0565b60405161025b9190613140565b60405180910390f35b34801561027057600080fd5b5061028b600480360381019061028691906128e7565b6107ed565b005b34801561029957600080fd5b506102b460048036038101906102af91906129ed565b61084d565b6040516102c19190613140565b60405180910390f35b3480156102d657600080fd5b506102f160048036038101906102ec9190612aa4565b6108f2565b005b3480156102ff57600080fd5b5061031a600480360381019061031591906128e7565b610af7565b005b34801561032857600080fd5b50610343600480360381019061033e9190612af8565b610b17565b6040516103509190613140565b60405180910390f35b610361610bae565b005b34801561036f57600080fd5b5061038a60048036038101906103859190612af8565b610c19565b6040516103979190612e46565b60405180910390f35b3480156103ac57600080fd5b506103b5610ccb565b6040516103c29190613140565b60405180910390f35b3480156103d757600080fd5b506103e0610cd0565b6040516103ed9190613140565b60405180910390f35b34801561040257600080fd5b5061041d60048036038101906104189190612882565b610cd6565b60405161042a9190613140565b60405180910390f35b34801561043f57600080fd5b50610448610d8e565b005b34801561045657600080fd5b5061045f610fb3565b60405161046c9190612e61565b60405180910390f35b34801561048157600080fd5b5061048a610fd9565b6040516104979190612f5e565b60405180910390f35b3480156104ac57600080fd5b506104b561106b565b6040516104c29190613140565b60405180910390f35b3480156104d757600080fd5b506104f260048036038101906104ed91906129b1565b61107a565b005b34801561050057600080fd5b5061051b60048036038101906105169190612936565b611090565b005b34801561052957600080fd5b50610544600480360381019061053f9190612af8565b6110f2565b6040516105519190612f5e565b60405180910390f35b34801561056657600080fd5b50610581600480360381019061057c91906128ab565b611104565b60405161058e9190612f28565b60405180910390f35b6105b160048036038101906105ac9190612aa4565b611198565b005b3480156105bf57600080fd5b506105c86111c9565b6040516105d59190612f43565b60405180910390f35b60006105e9826111ef565b9050919050565b6060600080546105ff906133cc565b80601f016020809104026020016040519081016040528092919081815260200182805461062b906133cc565b80156106785780601f1061064d57610100808354040283529160200191610678565b820191906000526020600020905b81548152906001019060200180831161065b57829003601f168201915b5050505050905090565b600061068d82611269565b6004600083815260200190815260200160002060009054906101000a900473ffffffffffffffffffffffffffffffffffffffff169050919050565b60006106d382610c19565b90508073ffffffffffffffffffffffffffffffffffffffff168373ffffffffffffffffffffffffffffffffffffffff161415610744576040517f08c379a000000000000000000000000000000000000000000000000000000000815260040161073b906130e0565b60405180910390fd5b8073ffffffffffffffffffffffffffffffffffffffff166107636112b4565b73ffffffffffffffffffffffffffffffffffffffff16148061079257506107918161078c6112b4565b611104565b5b6107d1576040517f08c379a00000000000000000000000000000000000000000000000000000000081526004016107c890613080565b60405180910390fd5b6107db83836112bc565b505050565b6000600880549050905090565b6107fe6107f86112b4565b82611375565b61083d576040517f08c379a000000000000000000000000000000000000000000000000000000000815260040161083490613120565b60405180910390fd5b61084883838361140a565b505050565b600061085883610cd6565b8210610899576040517f08c379a000000000000000000000000000000000000000000000000000000000815260040161089090612f80565b60405180910390fd5b600660008473ffffffffffffffffffffffffffffffffffffffff1673ffffffffffffffffffffffffffffffffffffffff168152602001908152602001600020600083815260200190815260200160002054905092915050565b600d54600c60009054906101000a900473ffffffffffffffffffffffffffffffffffffffff1673ffffffffffffffffffffffffffffffffffffffff166370a08231336040518263ffffffff1660e01b81526004016109509190612e46565b60206040518083038186803b15801561096857600080fd5b505afa15801561097c573d6000803e3d6000fd5b505050506040513d601f19601f820116820180604052508101906109a09190612b21565b10156109ab57600080fd5b6109b5600b611671565b60006109c1600b611687565b90506109cd8282611695565b6109d781846116b3565b600c60009054906101000a900473ffffffffffffffffffffffffffffffffffffffff1673ffffffffffffffffffffffffffffffffffffffff166323b872dd3330600d546040518463ffffffff1660e01b8152600401610a3893929190612e7c565b602060405180830381600087803b158015610a5257600080fd5b505af1158015610a66573d6000803e3d6000fd5b505050506040513d601f19601f82011682018060405250810190610a8a9190612a29565b503073ffffffffffffffffffffffffffffffffffffffff163373ffffffffffffffffffffffffffffffffffffffff167fd0ed88a3f042c6bbb1e3ea406079b5f2b4b198afccaa535d837f4c63abbc4de6600d54604051610aea9190613140565b60405180910390a3505050565b610b1283838360405180602001604052806000815250611090565b505050565b6000610b216107e0565b8210610b62576040517f08c379a0000000000000000000000000000000000000000000000000000000008152600401610b5990613100565b60405180910390fd5b60088281548110610b9c577f4e487b7100000000000000000000000000000000000000000000000000000000600052603260045260246000fd5b90600052602060002001549050919050565b600e60009054906101000a900473ffffffffffffffffffffffffffffffffffffffff1673ffffffffffffffffffffffffffffffffffffffff166108fc349081150290604051600060405180830381858888f19350505050158015610c16573d6000803e3d6000fd5b50565b6000806002600084815260200190815260200160002060009054906101000a900473ffffffffffffffffffffffffffffffffffffffff169050600073ffffffffffffffffffffffffffffffffffffffff168173ffffffffffffffffffffffffffffffffffffffff161415610cc2576040517f08c379a0000000000000000000000000000000000000000000000000000000008152600401610cb9906130c0565b60405180910390fd5b80915050919050565b600081565b600d5481565b60008073ffffffffffffffffffffffffffffffffffffffff168273ffffffffffffffffffffffffffffffffffffffff161415610d47576040517f08c379a0000000000000000000000000000000000000000000000000000000008152600401610d3e90613040565b60405180910390fd5b600360008373ffffffffffffffffffffffffffffffffffffffff1673ffffffffffffffffffffffffffffffffffffffff168152602001908152602001600020549050919050565b600e60009054906101000a900473ffffffffffffffffffffffffffffffffffffffff1673ffffffffffffffffffffffffffffffffffffffff163373ffffffffffffffffffffffffffffffffffffffff1614610de857600080fd5b6000600c60009054906101000a900473ffffffffffffffffffffffffffffffffffffffff1673ffffffffffffffffffffffffffffffffffffffff166370a08231306040518263ffffffff1660e01b8152600401610e459190612e46565b60206040518083038186803b158015610e5d57600080fd5b505afa158015610e71573d6000803e3d6000fd5b505050506040513d601f19601f82011682018060405250810190610e959190612b21565b9050600c60009054906101000a900473ffffffffffffffffffffffffffffffffffffffff1673ffffffffffffffffffffffffffffffffffffffff1663a9059cbb33836040518363ffffffff1660e01b8152600401610ef4929190612eff565b602060405180830381600087803b158015610f0e57600080fd5b505af1158015610f22573d6000803e3d6000fd5b505050506040513d601f19601f82011682018060405250810190610f469190612a29565b50600e60009054906101000a900473ffffffffffffffffffffffffffffffffffffffff1673ffffffffffffffffffffffffffffffffffffffff166108fc479081150290604051600060405180830381858888f19350505050158015610faf573d6000803e3d6000fd5b5050565b600e60009054906101000a900473ffffffffffffffffffffffffffffffffffffffff1681565b606060018054610fe8906133cc565b80601f0160208091040260200160405190810160405280929190818152602001828054611014906133cc565b80156110615780601f1061103657610100808354040283529160200191611061565b820191906000526020600020905b81548152906001019060200180831161104457829003601f168201915b5050505050905090565b60006110756107e0565b905090565b61108c6110856112b4565b8383611727565b5050565b6110a161109b6112b4565b83611375565b6110e0576040517f08c379a00000000000000000000000000000000000000000000000000000000081526004016110d790613120565b60405180910390fd5b6110ec84848484611894565b50505050565b60606110fd826118f0565b9050919050565b6000600560008473ffffffffffffffffffffffffffffffffffffffff1673ffffffffffffffffffffffffffffffffffffffff16815260200190815260200160002060008373ffffffffffffffffffffffffffffffffffffffff1673ffffffffffffffffffffffffffffffffffffffff16815260200190815260200160002060009054906101000a900460ff16905092915050565b6111a2600b611671565b60006111ae600b611687565b90506111ba8282611695565b6111c481846116b3565b505050565b600c60009054906101000a900473ffffffffffffffffffffffffffffffffffffffff1681565b60007f780e9d63000000000000000000000000000000000000000000000000000000007bffffffffffffffffffffffffffffffffffffffffffffffffffffffff1916827bffffffffffffffffffffffffffffffffffffffffffffffffffffffff19161480611262575061126182611a03565b5b9050919050565b61127281611ae5565b6112b1576040517f08c379a00000000000000000000000000000000000000000000000000000000081526004016112a8906130c0565b60405180910390fd5b50565b600033905090565b816004600083815260200190815260200160002060006101000a81548173ffffffffffffffffffffffffffffffffffffffff021916908373ffffffffffffffffffffffffffffffffffffffff160217905550808273ffffffffffffffffffffffffffffffffffffffff1661132f83610c19565b73ffffffffffffffffffffffffffffffffffffffff167f8c5be1e5ebec7d5bd14f71427d1e84f3dd0314c0f7b2291e5b200ac8c7c3b92560405160405180910390a45050565b60008061138183610c19565b90508073ffffffffffffffffffffffffffffffffffffffff168473ffffffffffffffffffffffffffffffffffffffff1614806113c357506113c28185611104565b5b8061140157508373ffffffffffffffffffffffffffffffffffffffff166113e984610682565b73ffffffffffffffffffffffffffffffffffffffff16145b91505092915050565b8273ffffffffffffffffffffffffffffffffffffffff1661142a82610c19565b73ffffffffffffffffffffffffffffffffffffffff1614611480576040517f08c379a000000000000000000000000000000000000000000000000000000000815260040161147790612fc0565b60405180910390fd5b600073ffffffffffffffffffffffffffffffffffffffff168273ffffffffffffffffffffffffffffffffffffffff1614156114f0576040517f08c379a00000000000000000000000000000000000000000000000000000000081526004016114e790613000565b60405180910390fd5b6114fb838383611b51565b6115066000826112bc565b6001600360008573ffffffffffffffffffffffffffffffffffffffff1673ffffffffffffffffffffffffffffffffffffffff168152602001908152602001600020600082825461155691906132ac565b925050819055506001600360008473ffffffffffffffffffffffffffffffffffffffff1673ffffffffffffffffffffffffffffffffffffffff16815260200190815260200160002060008282546115ad9190613225565b92505081905550816002600083815260200190815260200160002060006101000a81548173ffffffffffffffffffffffffffffffffffffffff021916908373ffffffffffffffffffffffffffffffffffffffff160217905550808273ffffffffffffffffffffffffffffffffffffffff168473ffffffffffffffffffffffffffffffffffffffff167fddf252ad1be2c89b69c2b068fc378daa952ba7f163c4a11628f55a4df523b3ef60405160405180910390a461166c838383611b61565b505050565b6001816000016000828254019250508190555050565b600081600001549050919050565b6116af828260405180602001604052806000815250611b66565b5050565b6116bc82611ae5565b6116fb576040517f08c379a00000000000000000000000000000000000000000000000000000000081526004016116f290613060565b60405180910390fd5b80600a6000848152602001908152602001600020908051906020019061172292919061267c565b505050565b8173ffffffffffffffffffffffffffffffffffffffff168373ffffffffffffffffffffffffffffffffffffffff161415611796576040517f08c379a000000000000000000000000000000000000000000000000000000000815260040161178d90613020565b60405180910390fd5b80600560008573ffffffffffffffffffffffffffffffffffffffff1673ffffffffffffffffffffffffffffffffffffffff16815260200190815260200160002060008473ffffffffffffffffffffffffffffffffffffffff1673ffffffffffffffffffffffffffffffffffffffff16815260200190815260200160002060006101000a81548160ff0219169083151502179055508173ffffffffffffffffffffffffffffffffffffffff168373ffffffffffffffffffffffffffffffffffffffff167f17307eab39ab6107e8899845ad3d59bd9653f200f220920489ca2b5937696c31836040516118879190612f28565b60405180910390a3505050565b61189f84848461140a565b6118ab84848484611bc1565b6118ea576040517f08c379a00000000000000000000000000000000000000000000000000000000081526004016118e190612fa0565b60405180910390fd5b50505050565b60606118fb82611269565b6000600a6000848152602001908152602001600020805461191b906133cc565b80601f0160208091040260200160405190810160405280929190818152602001828054611947906133cc565b80156119945780601f1061196957610100808354040283529160200191611994565b820191906000526020600020905b81548152906001019060200180831161197757829003601f168201915b5050505050905060006119a5611d58565b90506000815114156119bb5781925050506119fe565b6000825111156119f05780826040516020016119d8929190612e22565b604051602081830303815290604052925050506119fe565b6119f984611d6f565b925050505b919050565b60007f80ac58cd000000000000000000000000000000000000000000000000000000007bffffffffffffffffffffffffffffffffffffffffffffffffffffffff1916827bffffffffffffffffffffffffffffffffffffffffffffffffffffffff19161480611ace57507f5b5e139f000000000000000000000000000000000000000000000000000000007bffffffffffffffffffffffffffffffffffffffffffffffffffffffff1916827bffffffffffffffffffffffffffffffffffffffffffffffffffffffff1916145b80611ade5750611add82611dd7565b5b9050919050565b60008073ffffffffffffffffffffffffffffffffffffffff166002600084815260200190815260200160002060009054906101000a900473ffffffffffffffffffffffffffffffffffffffff1673ffffffffffffffffffffffffffffffffffffffff1614159050919050565b611b5c838383611e41565b505050565b505050565b611b708383611f55565b611b7d6000848484611bc1565b611bbc576040517f08c379a0000000000000000000000000000000000000000000000000000000008152600401611bb390612fa0565b60405180910390fd5b505050565b6000611be28473ffffffffffffffffffffffffffffffffffffffff1661212f565b15611d4b578373ffffffffffffffffffffffffffffffffffffffff1663150b7a02611c0b6112b4565b8786866040518563ffffffff1660e01b8152600401611c2d9493929190612eb3565b602060405180830381600087803b158015611c4757600080fd5b505af1925050508015611c7857506040513d601f19601f82011682018060405250810190611c759190612a7b565b60015b611cfb573d8060008114611ca8576040519150601f19603f3d011682016040523d82523d6000602084013e611cad565b606091505b50600081511415611cf3576040517f08c379a0000000000000000000000000000000000000000000000000000000008152600401611cea90612fa0565b60405180910390fd5b805181602001fd5b63150b7a0260e01b7bffffffffffffffffffffffffffffffffffffffffffffffffffffffff1916817bffffffffffffffffffffffffffffffffffffffffffffffffffffffff191614915050611d50565b600190505b949350505050565b606060405180602001604052806000815250905090565b6060611d7a82611269565b6000611d84611d58565b90506000815111611da45760405180602001604052806000815250611dcf565b80611dae84612152565b604051602001611dbf929190612e22565b6040516020818303038152906040525b915050919050565b60007f01ffc9a7000000000000000000000000000000000000000000000000000000007bffffffffffffffffffffffffffffffffffffffffffffffffffffffff1916827bffffffffffffffffffffffffffffffffffffffffffffffffffffffff1916149050919050565b611e4c8383836122ff565b600073ffffffffffffffffffffffffffffffffffffffff168373ffffffffffffffffffffffffffffffffffffffff161415611e8f57611e8a81612304565b611ece565b8173ffffffffffffffffffffffffffffffffffffffff168373ffffffffffffffffffffffffffffffffffffffff1614611ecd57611ecc838261234d565b5b5b600073ffffffffffffffffffffffffffffffffffffffff168273ffffffffffffffffffffffffffffffffffffffff161415611f1157611f0c816124ba565b611f50565b8273ffffffffffffffffffffffffffffffffffffffff168273ffffffffffffffffffffffffffffffffffffffff1614611f4f57611f4e82826125fd565b5b5b505050565b600073ffffffffffffffffffffffffffffffffffffffff168273ffffffffffffffffffffffffffffffffffffffff161415611fc5576040517f08c379a0000000000000000000000000000000000000000000000000000000008152600401611fbc906130a0565b60405180910390fd5b611fce81611ae5565b1561200e576040517f08c379a000000000000000000000000000000000000000000000000000000000815260040161200590612fe0565b60405180910390fd5b61201a60008383611b51565b6001600360008473ffffffffffffffffffffffffffffffffffffffff1673ffffffffffffffffffffffffffffffffffffffff168152602001908152602001600020600082825461206a9190613225565b92505081905550816002600083815260200190815260200160002060006101000a81548173ffffffffffffffffffffffffffffffffffffffff021916908373ffffffffffffffffffffffffffffffffffffffff160217905550808273ffffffffffffffffffffffffffffffffffffffff16600073ffffffffffffffffffffffffffffffffffffffff167fddf252ad1be2c89b69c2b068fc378daa952ba7f163c4a11628f55a4df523b3ef60405160405180910390a461212b60008383611b61565b5050565b6000808273ffffffffffffffffffffffffffffffffffffffff163b119050919050565b6060600082141561219a576040518060400160405280600181526020017f300000000000000000000000000000000000000000000000000000000000000081525090506122fa565b600082905060005b600082146121cc5780806121b59061342f565b915050600a826121c5919061327b565b91506121a2565b60008167ffffffffffffffff81111561220e577f4e487b7100000000000000000000000000000000000000000000000000000000600052604160045260246000fd5b6040519080825280601f01601f1916602001820160405280156122405781602001600182028036833780820191505090505b5090505b600085146122f35760018261225991906132ac565b9150600a856122689190613478565b60306122749190613225565b60f81b8183815181106122b0577f4e487b7100000000000000000000000000000000000000000000000000000000600052603260045260246000fd5b60200101907effffffffffffffffffffffffffffffffffffffffffffffffffffffffffffff1916908160001a905350600a856122ec919061327b565b9450612244565b8093505050505b919050565b505050565b6008805490506009600083815260200190815260200160002081905550600881908060018154018082558091505060019003906000526020600020016000909190919091505550565b6000600161235a84610cd6565b61236491906132ac565b9050600060076000848152602001908152602001600020549050818114612449576000600660008673ffffffffffffffffffffffffffffffffffffffff1673ffffffffffffffffffffffffffffffffffffffff168152602001908152602001600020600084815260200190815260200160002054905080600660008773ffffffffffffffffffffffffffffffffffffffff1673ffffffffffffffffffffffffffffffffffffffff168152602001908152602001600020600084815260200190815260200160002081905550816007600083815260200190815260200160002081905550505b6007600084815260200190815260200160002060009055600660008573ffffffffffffffffffffffffffffffffffffffff1673ffffffffffffffffffffffffffffffffffffffff16815260200190815260200160002060008381526020019081526020016000206000905550505050565b600060016008805490506124ce91906132ac565b9050600060096000848152602001908152602001600020549050600060088381548110612524577f4e487b7100000000000000000000000000000000000000000000000000000000600052603260045260246000fd5b90600052602060002001549050806008838154811061256c577f4e487b7100000000000000000000000000000000000000000000000000000000600052603260045260246000fd5b9060005260206000200181905550816009600083815260200190815260200160002081905550600960008581526020019081526020016000206000905560088054806125e1577f4e487b7100000000000000000000000000000000000000000000000000000000600052603160045260246000fd5b6001900381819060005260206000200160009055905550505050565b600061260883610cd6565b905081600660008573ffffffffffffffffffffffffffffffffffffffff1673ffffffffffffffffffffffffffffffffffffffff168152602001908152602001600020600083815260200190815260200160002081905550806007600084815260200190815260200160002081905550505050565b828054612688906133cc565b90600052602060002090601f0160209004810192826126aa57600085556126f1565b82601f106126c357805160ff19168380011785556126f1565b828001600101855582156126f1579182015b828111156126f05782518255916020019190600101906126d5565b5b5090506126fe9190612702565b5090565b5b8082111561271b576000816000905550600101612703565b5090565b600061273261272d84613180565b61315b565b90508281526020810184848401111561274a57600080fd5b61275584828561338a565b509392505050565b600061277061276b846131b1565b61315b565b90508281526020810184848401111561278857600080fd5b61279384828561338a565b509392505050565b6000813590506127aa81613930565b92915050565b6000813590506127bf81613947565b92915050565b6000815190506127d481613947565b92915050565b6000813590506127e98161395e565b92915050565b6000815190506127fe8161395e565b92915050565b600082601f83011261281557600080fd5b813561282584826020860161271f565b91505092915050565b600082601f83011261283f57600080fd5b813561284f84826020860161275d565b91505092915050565b60008135905061286781613975565b92915050565b60008151905061287c81613975565b92915050565b60006020828403121561289457600080fd5b60006128a28482850161279b565b91505092915050565b600080604083850312156128be57600080fd5b60006128cc8582860161279b565b92505060206128dd8582860161279b565b9150509250929050565b6000806000606084860312156128fc57600080fd5b600061290a8682870161279b565b935050602061291b8682870161279b565b925050604061292c86828701612858565b9150509250925092565b6000806000806080858703121561294c57600080fd5b600061295a8782880161279b565b945050602061296b8782880161279b565b935050604061297c87828801612858565b925050606085013567ffffffffffffffff81111561299957600080fd5b6129a587828801612804565b91505092959194509250565b600080604083850312156129c457600080fd5b60006129d28582860161279b565b92505060206129e3858286016127b0565b9150509250929050565b60008060408385031215612a0057600080fd5b6000612a0e8582860161279b565b9250506020612a1f85828601612858565b9150509250929050565b600060208284031215612a3b57600080fd5b6000612a49848285016127c5565b91505092915050565b600060208284031215612a6457600080fd5b6000612a72848285016127da565b91505092915050565b600060208284031215612a8d57600080fd5b6000612a9b848285016127ef565b91505092915050565b60008060408385031215612ab757600080fd5b600083013567ffffffffffffffff811115612ad157600080fd5b612add8582860161282e565b9250506020612aee8582860161279b565b9150509250929050565b600060208284031215612b0a57600080fd5b6000612b1884828501612858565b91505092915050565b600060208284031215612b3357600080fd5b6000612b418482850161286d565b91505092915050565b612b53816132f2565b82525050565b612b62816132e0565b82525050565b612b7181613304565b82525050565b6000612b82826131e2565b612b8c81856131f8565b9350612b9c818560208601613399565b612ba581613565565b840191505092915050565b612bb981613366565b82525050565b6000612bca826131ed565b612bd48185613209565b9350612be4818560208601613399565b612bed81613565565b840191505092915050565b6000612c03826131ed565b612c0d818561321a565b9350612c1d818560208601613399565b80840191505092915050565b6000612c36602b83613209565b9150612c4182613576565b604082019050919050565b6000612c59603283613209565b9150612c64826135c5565b604082019050919050565b6000612c7c602583613209565b9150612c8782613614565b604082019050919050565b6000612c9f601c83613209565b9150612caa82613663565b602082019050919050565b6000612cc2602483613209565b9150612ccd8261368c565b604082019050919050565b6000612ce5601983613209565b9150612cf0826136db565b602082019050919050565b6000612d08602983613209565b9150612d1382613704565b604082019050919050565b6000612d2b602e83613209565b9150612d3682613753565b604082019050919050565b6000612d4e603e83613209565b9150612d59826137a2565b604082019050919050565b6000612d71602083613209565b9150612d7c826137f1565b602082019050919050565b6000612d94601883613209565b9150612d9f8261381a565b602082019050919050565b6000612db7602183613209565b9150612dc282613843565b604082019050919050565b6000612dda602c83613209565b9150612de582613892565b604082019050919050565b6000612dfd602e83613209565b9150612e08826138e1565b604082019050919050565b612e1c8161335c565b82525050565b6000612e2e8285612bf8565b9150612e3a8284612bf8565b91508190509392505050565b6000602082019050612e5b6000830184612b59565b92915050565b6000602082019050612e766000830184612b4a565b92915050565b6000606082019050612e916000830186612b59565b612e9e6020830185612b59565b612eab6040830184612e13565b949350505050565b6000608082019050612ec86000830187612b59565b612ed56020830186612b59565b612ee26040830185612e13565b8181036060830152612ef48184612b77565b905095945050505050565b6000604082019050612f146000830185612b59565b612f216020830184612e13565b9392505050565b6000602082019050612f3d6000830184612b68565b92915050565b6000602082019050612f586000830184612bb0565b92915050565b60006020820190508181036000830152612f788184612bbf565b905092915050565b60006020820190508181036000830152612f9981612c29565b9050919050565b60006020820190508181036000830152612fb981612c4c565b9050919050565b60006020820190508181036000830152612fd981612c6f565b9050919050565b60006020820190508181036000830152612ff981612c92565b9050919050565b6000602082019050818103600083015261301981612cb5565b9050919050565b6000602082019050818103600083015261303981612cd8565b9050919050565b6000602082019050818103600083015261305981612cfb565b9050919050565b6000602082019050818103600083015261307981612d1e565b9050919050565b6000602082019050818103600083015261309981612d41565b9050919050565b600060208201905081810360008301526130b981612d64565b9050919050565b600060208201905081810360008301526130d981612d87565b9050919050565b600060208201905081810360008301526130f981612daa565b9050919050565b6000602082019050818103600083015261311981612dcd565b9050919050565b6000602082019050818103600083015261313981612df0565b9050919050565b60006020820190506131556000830184612e13565b92915050565b6000613165613176565b905061317182826133fe565b919050565b6000604051905090565b600067ffffffffffffffff82111561319b5761319a613536565b5b6131a482613565565b9050602081019050919050565b600067ffffffffffffffff8211156131cc576131cb613536565b5b6131d582613565565b9050602081019050919050565b600081519050919050565b600081519050919050565b600082825260208201905092915050565b600082825260208201905092915050565b600081905092915050565b60006132308261335c565b915061323b8361335c565b9250827fffffffffffffffffffffffffffffffffffffffffffffffffffffffffffffffff038211156132705761326f6134a9565b5b828201905092915050565b60006132868261335c565b91506132918361335c565b9250826132a1576132a06134d8565b5b828204905092915050565b60006132b78261335c565b91506132c28361335c565b9250828210156132d5576132d46134a9565b5b828203905092915050565b60006132eb8261333c565b9050919050565b60006132fd8261333c565b9050919050565b60008115159050919050565b60007fffffffff0000000000000000000000000000000000000000000000000000000082169050919050565b600073ffffffffffffffffffffffffffffffffffffffff82169050919050565b6000819050919050565b600061337182613378565b9050919050565b60006133838261333c565b9050919050565b82818337600083830152505050565b60005b838110156133b757808201518184015260208101905061339c565b838111156133c6576000848401525b50505050565b600060028204905060018216806133e457607f821691505b602082108114156133f8576133f7613507565b5b50919050565b61340782613565565b810181811067ffffffffffffffff8211171561342657613425613536565b5b80604052505050565b600061343a8261335c565b91507fffffffffffffffffffffffffffffffffffffffffffffffffffffffffffffffff82141561346d5761346c6134a9565b5b600182019050919050565b60006134838261335c565b915061348e8361335c565b92508261349e5761349d6134d8565b5b828206905092915050565b7f4e487b7100000000000000000000000000000000000000000000000000000000600052601160045260246000fd5b7f4e487b7100000000000000000000000000000000000000000000000000000000600052601260045260246000fd5b7f4e487b7100000000000000000000000000000000000000000000000000000000600052602260045260246000fd5b7f4e487b7100000000000000000000000000000000000000000000000000000000600052604160045260246000fd5b6000601f19601f8301169050919050565b7f455243373231456e756d657261626c653a206f776e657220696e646578206f7560008201527f74206f6620626f756e6473000000000000000000000000000000000000000000602082015250565b7f4552433732313a207472616e7366657220746f206e6f6e20455243373231526560008201527f63656976657220696d706c656d656e7465720000000000000000000000000000602082015250565b7f4552433732313a207472616e736665722066726f6d20696e636f72726563742060008201527f6f776e6572000000000000000000000000000000000000000000000000000000602082015250565b7f4552433732313a20746f6b656e20616c7265616479206d696e74656400000000600082015250565b7f4552433732313a207472616e7366657220746f20746865207a65726f2061646460008201527f7265737300000000000000000000000000000000000000000000000000000000602082015250565b7f4552433732313a20617070726f766520746f2063616c6c657200000000000000600082015250565b7f4552433732313a2061646472657373207a65726f206973206e6f74206120766160008201527f6c6964206f776e65720000000000000000000000000000000000000000000000602082015250565b7f45524337323155524953746f726167653a2055524920736574206f66206e6f6e60008201527f6578697374656e7420746f6b656e000000000000000000000000000000000000602082015250565b7f4552433732313a20617070726f76652063616c6c6572206973206e6f7420746f60008201527f6b656e206f776e6572206e6f7220617070726f76656420666f7220616c6c0000602082015250565b7f4552433732313a206d696e7420746f20746865207a65726f2061646472657373600082015250565b7f4552433732313a20696e76616c696420746f6b656e2049440000000000000000600082015250565b7f4552433732313a20617070726f76616c20746f2063757272656e74206f776e6560008201527f7200000000000000000000000000000000000000000000000000000000000000602082015250565b7f455243373231456e756d657261626c653a20676c6f62616c20696e646578206f60008201527f7574206f6620626f756e64730000000000000000000000000000000000000000602082015250565b7f4552433732313a2063616c6c6572206973206e6f7420746f6b656e206f776e6560008201527f72206e6f7220617070726f766564000000000000000000000000000000000000602082015250565b613939816132e0565b811461394457600080fd5b50565b61395081613304565b811461395b57600080fd5b50565b61396781613310565b811461397257600080fd5b50565b61397e8161335c565b811461398957600080fd5b5056fea2646970667358221220dab71d07e1d51248ef62230984a68951ec48d2b7372c7d84d8ecc0e07a2dc97d64736f6c63430008040033",
  "linkReferences": {},
  "deployedLinkReferences": {}
}